{
  "_format": "hh-sol-artifact-1",
  "contractName": "PaintToEarn",
  "sourceName": "contracts/PaintToEarn.sol",
  "abi": [
    {
      "inputs": [],
      "stateMutability": "nonpayable",
      "type": "constructor"
    },
    {
      "anonymous": false,
      "inputs": [
        {
          "indexed": true,
          "internalType": "address",
          "name": "previousOwner",
          "type": "address"
        },
        {
          "indexed": true,
          "internalType": "address",
          "name": "newOwner",
          "type": "address"
        }
      ],
      "name": "OwnershipTransferred",
      "type": "event"
    },
    {
      "inputs": [
        {
          "internalType": "string",
          "name": "color",
          "type": "string"
        }
      ],
      "name": "checkColorInColorPalette",
      "outputs": [
        {
          "internalType": "bool",
          "name": "",
          "type": "bool"
        }
      ],
      "stateMutability": "view",
      "type": "function"
    },
    {
      "inputs": [
        {
          "internalType": "uint256",
          "name": "x",
          "type": "uint256"
        },
        {
          "internalType": "uint256",
          "name": "y",
          "type": "uint256"
        }
      ],
      "name": "clearCoordinate",
      "outputs": [],
      "stateMutability": "nonpayable",
      "type": "function"
    },
    {
      "inputs": [
        {
          "internalType": "address",
          "name": "_address",
          "type": "address"
        }
      ],
      "name": "getAddressPaintCount",
      "outputs": [
        {
          "internalType": "uint256",
          "name": "",
          "type": "uint256"
        }
      ],
      "stateMutability": "view",
      "type": "function"
    },
    {
      "inputs": [],
      "name": "getCanvasSizeHeight",
      "outputs": [
        {
          "internalType": "uint256",
          "name": "",
          "type": "uint256"
        }
      ],
      "stateMutability": "view",
      "type": "function"
    },
    {
      "inputs": [],
      "name": "getCanvasSizeWidth",
      "outputs": [
        {
          "internalType": "uint256",
          "name": "",
          "type": "uint256"
        }
      ],
      "stateMutability": "view",
      "type": "function"
    },
    {
      "inputs": [
        {
          "internalType": "uint256",
          "name": "index",
          "type": "uint256"
        }
      ],
      "name": "getColorPalette",
      "outputs": [
        {
          "internalType": "string",
          "name": "",
          "type": "string"
        }
      ],
      "stateMutability": "view",
      "type": "function"
    },
    {
      "inputs": [
        {
          "internalType": "uint256",
          "name": "x",
          "type": "uint256"
        },
        {
          "internalType": "uint256",
          "name": "y",
          "type": "uint256"
        }
      ],
      "name": "getCoordinateAddress",
      "outputs": [
        {
          "internalType": "address",
          "name": "",
          "type": "address"
        }
      ],
      "stateMutability": "view",
      "type": "function"
    },
    {
      "inputs": [
        {
          "internalType": "uint256",
          "name": "x",
          "type": "uint256"
        },
        {
          "internalType": "uint256",
          "name": "y",
          "type": "uint256"
        }
      ],
      "name": "getCoordinateColor",
      "outputs": [
        {
          "internalType": "string",
          "name": "",
          "type": "string"
        }
      ],
      "stateMutability": "view",
      "type": "function"
    },
    {
      "inputs": [],
      "name": "getPaintPrice",
      "outputs": [
        {
          "internalType": "uint256",
          "name": "",
          "type": "uint256"
        }
      ],
      "stateMutability": "view",
      "type": "function"
    },
    {
      "inputs": [],
      "name": "getPaintState",
      "outputs": [
        {
          "internalType": "bool",
          "name": "",
          "type": "bool"
        }
      ],
      "stateMutability": "view",
      "type": "function"
    },
    {
      "inputs": [],
      "name": "owner",
      "outputs": [
        {
          "internalType": "address",
          "name": "",
          "type": "address"
        }
      ],
      "stateMutability": "view",
      "type": "function"
    },
    {
      "inputs": [
        {
          "internalType": "uint256",
          "name": "x",
          "type": "uint256"
        },
        {
          "internalType": "uint256",
          "name": "y",
          "type": "uint256"
        },
        {
          "internalType": "address",
          "name": "_address",
          "type": "address"
        },
        {
          "internalType": "string",
          "name": "color",
          "type": "string"
        }
      ],
      "name": "ownerPaintCoordinate",
      "outputs": [],
      "stateMutability": "nonpayable",
      "type": "function"
    },
    {
      "inputs": [
        {
          "internalType": "uint256",
          "name": "x",
          "type": "uint256"
        },
        {
          "internalType": "uint256",
          "name": "y",
          "type": "uint256"
        },
        {
          "internalType": "address",
          "name": "_address",
          "type": "address"
        },
        {
          "internalType": "string",
          "name": "color",
          "type": "string"
        }
      ],
      "name": "paintCoordinate",
      "outputs": [],
      "stateMutability": "payable",
      "type": "function"
    },
    {
      "inputs": [],
      "name": "renounceOwnership",
      "outputs": [],
      "stateMutability": "nonpayable",
      "type": "function"
    },
    {
      "inputs": [
        {
          "internalType": "address",
          "name": "newOwner",
          "type": "address"
        }
      ],
      "name": "transferOwnership",
      "outputs": [],
      "stateMutability": "nonpayable",
      "type": "function"
    },
    {
      "inputs": [
        {
          "internalType": "uint256",
          "name": "price",
          "type": "uint256"
        }
      ],
      "name": "updatePaintPrice",
      "outputs": [],
      "stateMutability": "nonpayable",
      "type": "function"
    },
    {
      "inputs": [
        {
          "internalType": "bool",
          "name": "state",
          "type": "bool"
        }
      ],
      "name": "updatePaintState",
      "outputs": [],
      "stateMutability": "nonpayable",
      "type": "function"
    },
    {
      "inputs": [],
      "name": "withdraw",
      "outputs": [],
      "stateMutability": "payable",
      "type": "function"
    }
  ],
  "bytecode": "0x60806040526000805460ff60a01b1916600160a01b179055660997a2bce4c0006001556103e86002819055600355600880546001600160a01b031990811673524192ce030d38ad15cfa1b98f19a55af692febd179091556009805490911673bff3a6caec37850f23db6ebb9e23c884ecbe13bd1790553480156200008257600080fd5b506200008e3362000582565b6040805180820190915260078152662346464436333560c81b602080830191825260008052600490529051620000e6917f17ef568e3e12ab5b9c7254a8d58478811de00f9e6eb34345acd53bf8fd09d3ec91620005d2565b506040805180820190915260078152660234646413830360cc1b6020808301918252600160005260049052905162000140917fabd6e7cb50984ff9c2f3e18a2660c3353dadf4e3291deeb275dae2cd1e44fe0591620005d2565b506040805180820190915260078152660234646343530360cc1b602080830191825260026000526004905290516200019a917f91da3fd0782e51c6b3986e9e672fd566868e71f3dbc2d6c2cd6fbb3e361af2a791620005d2565b506040805180820190915260078152662342453030333960c81b60208083019182526003600052600490529051620001f4917f2e174c10e159ea99b867ce3205125c24a42d128804e4070ed6fcc8cc98166aa091620005d2565b506040805180820190915260078152660234234344143360cc1b602080830191825260046000819052905290516200024e917f1a1e6821cde7d0159c0d293177871e09677b4e42307c7db3ba94f8648a5a050f91620005d2565b50604080518082019091526007815266119c1898a29ca360c91b60208083019182526005600052600490529051620002a8917f04cde762ef08b6b6c5ded8e8c4c0b3f4e5c9ad7342c88fcc93681b4588b73f0591620005d2565b506040805180820190915260078152662334393341433160c81b6020808301918252600660005260049052905162000302917fc59312466997bb42aaaf719ece141047820e6b34531e1670dc1852a453648f0f91620005d2565b50604080518082019091526007808252662333363930454160c81b6020808401918252600092909252600490915290516200035f917fbeb3bad75134cb432e5707980e3245c52c5998a1125ee30f2f0dbf3925b1e55191620005d2565b50604080518082019091526007815266046606082666c760cb1b60208083019182526008600052600490529051620003b9917f2645749a946633740611cfc8178319f0958659d6922e4bf7e3a08b44789f53a491620005d2565b50604080518082019091526007815266046606086866e760cb1b6020808301918252600960005260049052905162000413917f4ad5a04d53b5856f318545bb721f67d3f6d0a5a999f25eec7e20eaeb4c47b93391620005d2565b5060408051808201909152600781526611a3232323232360c91b6020808301918252600a6000526004905290516200046d917f5c6b02db8b672415ffad906d7ccee10bd53dbad7d0b29e2bc0e50c93d5f3109391620005d2565b506040805180820190915260078152662344344437443960c81b6020808301918252600b600052600490529051620004c7917f0c1469ad586d86b6976c45826d7ae56d76ee516e37a2bccffbe904b74dbae7ea91620005d2565b506040805180820190915260078152660233839384439360cc1b6020808301918252600c60005260049052905162000521917f140aabff1a85df08546c9a350c79ae18341bde4a2cef5d2fd460885c0128ce2691620005d2565b506040805180820190915260078152660233030303030360cc1b6020808301918252600d6000526004905290516200057b917fa5022b2bfd144bf9103d80168549b5df7c72ab60bd51bf71a02a08d844853b4a91620005d2565b50620006b5565b600080546001600160a01b038381166001600160a01b0319831681178455604051919092169283917f8be0079c531659141344cd1fd0a4f28419497f9722a3daafe3b4186f6b6457e09190a35050565b828054620005e09062000678565b90600052602060002090601f0160209004810192826200060457600085556200064f565b82601f106200061f57805160ff19168380011785556200064f565b828001600101855582156200064f579182015b828111156200064f57825182559160200191906001019062000632565b506200065d92915062000661565b5090565b5b808211156200065d576000815560010162000662565b600181811c908216806200068d57607f821691505b60208210811415620006af57634e487b7160e01b600052602260045260246000fd5b50919050565b61155180620006c56000396000f3fe6080604052600436106101095760003560e01c8063a8a0e6dd11610095578063d80f088e11610064578063d80f088e146102a7578063d8da423f146102bc578063dd257f16146102f2578063dd33691a14610312578063f2fde38b1461033257600080fd5b8063a8a0e6dd1461021b578063c41c4d5414610248578063c99c2f4014610268578063d4c7ace81461028757600080fd5b8063715018a6116100dc578063715018a61461017f5780638da5cb5b146101945780638f830860146101c65780639e0deb95146101db578063a7026390146101fb57600080fd5b80630786c1ef1461010e5780632434fafa146101235780633ccfd60b1461015857806347423bf814610160575b600080fd5b61012161011c366004611033565b610352565b005b34801561012f57600080fd5b5061014361013e36600461116a565b6105c1565b60405190151581526020015b60405180910390f35b610121610651565b34801561016c57600080fd5b506003545b60405190815260200161014f565b34801561018b57600080fd5b50610121610841565b3480156101a057600080fd5b506000546001600160a01b03165b6040516001600160a01b03909116815260200161014f565b3480156101d257600080fd5b50600254610171565b3480156101e757600080fd5b506101216101f636600461119f565b610877565b34801561020757600080fd5b506101ae6102163660046111b8565b6108a6565b34801561022757600080fd5b5061023b6102363660046111b8565b61090b565b60405161014f9190611206565b34801561025457600080fd5b50610121610263366004611239565b610a63565b34801561027457600080fd5b50600054600160a01b900460ff16610143565b34801561029357600080fd5b5061023b6102a236600461119f565b610aab565b3480156102b357600080fd5b50600154610171565b3480156102c857600080fd5b506101716102d7366004611262565b6001600160a01b031660009081526005602052604090205490565b3480156102fe57600080fd5b5061012161030d3660046111b8565b610b4d565b34801561031e57600080fd5b5061012161032d36600461127d565b610c16565b34801561033e57600080fd5b5061012161034d366004611262565b610d1b565b600054600160a01b900460ff1615156001146103b55760405162461bcd60e51b815260206004820152601b60248201527f5061696e74696e67206973206e6f7420616374697665206e6f772e000000000060448201526064015b60405180910390fd5b600254851080156103c4575060015b80156103d1575060035484105b6103ed5760405162461bcd60e51b81526004016103ac906112de565b6001543410156104355760405162461bcd60e51b815260206004820152601360248201527224b739bab33334b1b4b2b73a10333ab732399760691b60448201526064016103ac565b61047482828080601f0160208091040260200160405190810160405280939291908181526020018383808284376000920191909152506105c192505050565b15156001146104955760405162461bcd60e51b81526004016103ac90611315565b6104d785858585858080601f016020809104026020016040519081016040528093929190818152602001838380828437600092019190915250610db692505050565b1561054a5760405162461bcd60e51b815260206004820152603d60248201527f53616d65206164647265737320616c7265616479207061696e7465642073616d60448201527f6520636f6c6f7220696e746f207468697320636f6f7264696e6174652e00000060648201526084016103ac565b3360009081526005602052604081208054916105658361136d565b90915550506000858152600660209081526040808320878452825280832080546001600160a01b0319166001600160a01b0388161790558783526007825280832087845290915290206105b9908383610f0a565b505050505050565b6000805b600e81101561064857826040516020016105df9190611388565b60408051601f1981840301815282825280516020918201206000858152600483529290922091926106119291016113df565b6040516020818303038152906040528051906020012014156106365750600192915050565b806106408161136d565b9150506105c5565b50600092915050565b6000546001600160a01b0316331461067b5760405162461bcd60e51b81526004016103ac9061147b565b47806106bf5760405162461bcd60e51b81526020600482015260136024820152722737ba1032b737bab3b4103130b630b731b29760691b60448201526064016103ac565b6008546000906001600160a01b03166103e86106dd846101f46114b0565b6106e791906114cf565b604051600081818185875af1925050503d8060008114610723576040519150601f19603f3d011682016040523d82523d6000602084013e610728565b606091505b50509050806107495760405162461bcd60e51b81526004016103ac906114f1565b6009546000906001600160a01b03166103e8610767856101f46114b0565b61077191906114cf565b604051600081818185875af1925050503d80600081146107ad576040519150601f19603f3d011682016040523d82523d6000602084013e6107b2565b606091505b50509050806107d35760405162461bcd60e51b81526004016103ac906114f1565b604051600090339047908381818185875af1925050503d8060008114610815576040519150601f19603f3d011682016040523d82523d6000602084013e61081a565b606091505b505090508061083b5760405162461bcd60e51b81526004016103ac906114f1565b50505050565b6000546001600160a01b0316331461086b5760405162461bcd60e51b81526004016103ac9061147b565b6108756000610eba565b565b6000546001600160a01b031633146108a15760405162461bcd60e51b81526004016103ac9061147b565b600155565b6000600254831080156108b7575060015b80156108c4575060035482105b6108e05760405162461bcd60e51b81526004016103ac906112de565b5060008281526006602090815260408083208484529091529020546001600160a01b03165b92915050565b60606002548310801561091c575060015b8015610929575060035482105b6109455760405162461bcd60e51b81526004016103ac906112de565b6040805160008082526020808301808552835190208783526007825284832087845290915290839020909261097a92016113df565b6040516020818303038152906040528051906020012014156109ba57506040805180820190915260078152660233030303030360cc1b6020820152610905565b6000838152600760209081526040808320858452909152902080546109de906113a4565b80601f0160208091040260200160405190810160405280929190818152602001828054610a0a906113a4565b8015610a575780601f10610a2c57610100808354040283529160200191610a57565b820191906000526020600020905b815481529060010190602001808311610a3a57829003601f168201915b50505050509050610905565b6000546001600160a01b03163314610a8d5760405162461bcd60e51b81526004016103ac9061147b565b60008054911515600160a01b0260ff60a01b19909216919091179055565b6000818152600460205260409020805460609190610ac8906113a4565b80601f0160208091040260200160405190810160405280929190818152602001828054610af4906113a4565b8015610b415780601f10610b1657610100808354040283529160200191610b41565b820191906000526020600020905b815481529060010190602001808311610b2457829003601f168201915b50505050509050919050565b6000546001600160a01b03163314610b775760405162461bcd60e51b81526004016103ac9061147b565b60025482108015610b86575060015b8015610b93575060035481105b610baf5760405162461bcd60e51b81526004016103ac906112de565b6000828152600660209081526040808320848452825280832080546001600160a01b0319169055805180820182526007808252660233030303030360cc1b82850190815287865290845282852086865290935292209151610c11929190610f8e565b505050565b6000546001600160a01b03163314610c405760405162461bcd60e51b81526004016103ac9061147b565b60025484108015610c4f575060015b8015610c5c575060035483105b610c785760405162461bcd60e51b81526004016103ac906112de565b610c81816105c1565b1515600114610ca25760405162461bcd60e51b81526004016103ac90611315565b336000908152600560205260408120805491610cbd8361136d565b90915550506000848152600660209081526040808320868452825280832080546001600160a01b0319166001600160a01b0387161790558683526007825280832086845282529091208251610d1492840190610f8e565b5050505050565b6000546001600160a01b03163314610d455760405162461bcd60e51b81526004016103ac9061147b565b6001600160a01b038116610daa5760405162461bcd60e51b815260206004820152602660248201527f4f776e61626c653a206e6577206f776e657220697320746865207a65726f206160448201526564647265737360d01b60648201526084016103ac565b610db381610eba565b50565b6040516bffffffffffffffffffffffff19606084901b16602082015260009060340160408051601f1981840301815282825280516020918201206000898152600683528381208982528352929092205460601b6bffffffffffffffffffffffff1916908301529060340160405160208183030381529060405280519060200120148015610ea1575081604051602001610e4f9190611388565b60408051601f1981840301815282825280516020918201206000898152600783528381208982528352929092209192610e899291016113df565b60405160208183030381529060405280519060200120145b15610eae57506001610eb2565b5060005b949350505050565b600080546001600160a01b038381166001600160a01b0319831681178455604051919092169283917f8be0079c531659141344cd1fd0a4f28419497f9722a3daafe3b4186f6b6457e09190a35050565b828054610f16906113a4565b90600052602060002090601f016020900481019282610f385760008555610f7e565b82601f10610f515782800160ff19823516178555610f7e565b82800160010185558215610f7e579182015b82811115610f7e578235825591602001919060010190610f63565b50610f8a929150611002565b5090565b828054610f9a906113a4565b90600052602060002090601f016020900481019282610fbc5760008555610f7e565b82601f10610fd557805160ff1916838001178555610f7e565b82800160010185558215610f7e579182015b82811115610f7e578251825591602001919060010190610fe7565b5b80821115610f8a5760008155600101611003565b80356001600160a01b038116811461102e57600080fd5b919050565b60008060008060006080868803121561104b57600080fd5b853594506020860135935061106260408701611017565b9250606086013567ffffffffffffffff8082111561107f57600080fd5b818801915088601f83011261109357600080fd5b8135818111156110a257600080fd5b8960208285010111156110b457600080fd5b9699959850939650602001949392505050565b634e487b7160e01b600052604160045260246000fd5b600082601f8301126110ee57600080fd5b813567ffffffffffffffff80821115611109576111096110c7565b604051601f8301601f19908116603f01168101908282118183101715611131576111316110c7565b8160405283815286602085880101111561114a57600080fd5b836020870160208301376000602085830101528094505050505092915050565b60006020828403121561117c57600080fd5b813567ffffffffffffffff81111561119357600080fd5b610eb2848285016110dd565b6000602082840312156111b157600080fd5b5035919050565b600080604083850312156111cb57600080fd5b50508035926020909101359150565b60005b838110156111f55781810151838201526020016111dd565b8381111561083b5750506000910152565b60208152600082518060208401526112258160408501602087016111da565b601f01601f19169190910160400192915050565b60006020828403121561124b57600080fd5b8135801515811461125b57600080fd5b9392505050565b60006020828403121561127457600080fd5b61125b82611017565b6000806000806080858703121561129357600080fd5b84359350602085013592506112aa60408601611017565b9150606085013567ffffffffffffffff8111156112c657600080fd5b6112d2878288016110dd565b91505092959194509250565b60208082526019908201527f436f6f7264696e61746520646f65736e27742065786973742e00000000000000604082015260600190565b60208082526022908201527f436f6c6f72206973206e6f7420696e2074686520636f6c6f722070616c657474604082015261329760f11b606082015260800190565b634e487b7160e01b600052601160045260246000fd5b600060001982141561138157611381611357565b5060010190565b6000825161139a8184602087016111da565b9190910192915050565b600181811c908216806113b857607f821691505b602082108114156113d957634e487b7160e01b600052602260045260246000fd5b50919050565b600080835481600182811c9150808316806113fb57607f831692505b602080841082141561141b57634e487b7160e01b86526022600452602486fd5b81801561142f57600181146114405761146d565b60ff1986168952848901965061146d565b60008a81526020902060005b868110156114655781548b82015290850190830161144c565b505084890196505b509498975050505050505050565b6020808252818101527f4f776e61626c653a2063616c6c6572206973206e6f7420746865206f776e6572604082015260600190565b60008160001904831182151516156114ca576114ca611357565b500290565b6000826114ec57634e487b7160e01b600052601260045260246000fd5b500490565b60208082526010908201526f2a3930b739b332b9103330b4b632b21760811b60408201526060019056fea2646970667358221220e5808b8f6eae41c3cbf649a323e3c26788299c7112ee591c6e0d1491389a36a264736f6c63430008090033",
  "linkReferences": {},
  "deployedLinkReferences": {}
}